{
  "_format": "hh-sol-artifact-1",
  "contractName": "GPTMembership",
  "sourceName": "contracts/chat-gpt/chat-gpt.sol",
  "abi": [
    {
      "inputs": [
        {
          "internalType": "string",
          "name": "_name",
          "type": "string"
        },
        {
          "internalType": "string",
          "name": "_symbol",
          "type": "string"
        }
      ],
      "stateMutability": "nonpayable",
      "type": "constructor"
    },
    {
      "anonymous": false,
      "inputs": [
        {
          "indexed": true,
          "internalType": "address",
          "name": "owner",
          "type": "address"
        },
        {
          "indexed": true,
          "internalType": "address",
          "name": "approved",
          "type": "address"
        },
        {
          "indexed": true,
          "internalType": "uint256",
          "name": "tokenId",
          "type": "uint256"
        }
      ],
      "name": "Approval",
      "type": "event"
    },
    {
      "anonymous": false,
      "inputs": [
        {
          "indexed": true,
          "internalType": "address",
          "name": "owner",
          "type": "address"
        },
        {
          "indexed": true,
          "internalType": "address",
          "name": "operator",
          "type": "address"
        },
        {
          "indexed": false,
          "internalType": "bool",
          "name": "approved",
          "type": "bool"
        }
      ],
      "name": "ApprovalForAll",
      "type": "event"
    },
    {
      "anonymous": false,
      "inputs": [
        {
          "indexed": true,
          "internalType": "address",
          "name": "from",
          "type": "address"
        },
        {
          "indexed": true,
          "internalType": "address",
          "name": "to",
          "type": "address"
        },
        {
          "indexed": true,
          "internalType": "uint256",
          "name": "tokenId",
          "type": "uint256"
        }
      ],
      "name": "Transfer",
      "type": "event"
    },
    {
      "inputs": [],
      "name": "MY_CONTRACT",
      "outputs": [
        {
          "internalType": "string",
          "name": "",
          "type": "string"
        }
      ],
      "stateMutability": "view",
      "type": "function"
    },
    {
      "inputs": [
        {
          "internalType": "address",
          "name": "to",
          "type": "address"
        },
        {
          "internalType": "uint256",
          "name": "tokenId",
          "type": "uint256"
        }
      ],
      "name": "approve",
      "outputs": [],
      "stateMutability": "nonpayable",
      "type": "function"
    },
    {
      "inputs": [
        {
          "internalType": "address",
          "name": "owner",
          "type": "address"
        }
      ],
      "name": "balanceOf",
      "outputs": [
        {
          "internalType": "uint256",
          "name": "",
          "type": "uint256"
        }
      ],
      "stateMutability": "view",
      "type": "function"
    },
    {
      "inputs": [
        {
          "internalType": "uint256",
          "name": "tokenId",
          "type": "uint256"
        }
      ],
      "name": "getApproved",
      "outputs": [
        {
          "internalType": "address",
          "name": "",
          "type": "address"
        }
      ],
      "stateMutability": "view",
      "type": "function"
    },
    {
      "inputs": [
        {
          "internalType": "uint256",
          "name": "_membershipId",
          "type": "uint256"
        }
      ],
      "name": "getMembership",
      "outputs": [
        {
          "components": [
            {
              "internalType": "uint256",
              "name": "id",
              "type": "uint256"
            },
            {
              "internalType": "string",
              "name": "name",
              "type": "string"
            },
            {
              "internalType": "uint256",
              "name": "cost",
              "type": "uint256"
            },
            {
              "internalType": "string",
              "name": "date",
              "type": "string"
            }
          ],
          "internalType": "struct GPTMembership.Membership",
          "name": "",
          "type": "tuple"
        }
      ],
      "stateMutability": "view",
      "type": "function"
    },
    {
      "inputs": [
        {
          "internalType": "uint256",
          "name": "_membershipId",
          "type": "uint256"
        }
      ],
      "name": "getMembershipsTaken",
      "outputs": [
        {
          "internalType": "uint256[]",
          "name": "",
          "type": "uint256[]"
        }
      ],
      "stateMutability": "view",
      "type": "function"
    },
    {
      "inputs": [
        {
          "internalType": "address",
          "name": "_address",
          "type": "address"
        }
      ],
      "name": "getUserMembership",
      "outputs": [
        {
          "components": [
            {
              "internalType": "uint256",
              "name": "id",
              "type": "uint256"
            },
            {
              "internalType": "uint256",
              "name": "membershipId",
              "type": "uint256"
            },
            {
              "internalType": "address",
              "name": "addressUser",
              "type": "address"
            },
            {
              "internalType": "uint256",
              "name": "cost",
              "type": "uint256"
            },
            {
              "internalType": "string",
              "name": "expriedDay",
              "type": "string"
            }
          ],
          "internalType": "struct GPTMembership.UserMembership",
          "name": "",
          "type": "tuple"
        }
      ],
      "stateMutability": "view",
      "type": "function"
    },
    {
      "inputs": [
        {
          "internalType": "uint256",
          "name": "",
          "type": "uint256"
        },
        {
          "internalType": "address",
          "name": "",
          "type": "address"
        }
      ],
      "name": "hasBought",
      "outputs": [
        {
          "internalType": "bool",
          "name": "",
          "type": "bool"
        }
      ],
      "stateMutability": "view",
      "type": "function"
    },
    {
      "inputs": [
        {
          "internalType": "address",
          "name": "owner",
          "type": "address"
        },
        {
          "internalType": "address",
          "name": "operator",
          "type": "address"
        }
      ],
      "name": "isApprovedForAll",
      "outputs": [
        {
          "internalType": "bool",
          "name": "",
          "type": "bool"
        }
      ],
      "stateMutability": "view",
      "type": "function"
    },
    {
      "inputs": [
        {
          "internalType": "string",
          "name": "_name",
          "type": "string"
        },
        {
          "internalType": "uint256",
          "name": "_cost",
          "type": "uint256"
        },
        {
          "internalType": "string",
          "name": "_date",
          "type": "string"
        }
      ],
      "name": "list",
      "outputs": [],
      "stateMutability": "nonpayable",
      "type": "function"
    },
    {
      "inputs": [],
      "name": "memberShipTypes",
      "outputs": [
        {
          "internalType": "uint256",
          "name": "",
          "type": "uint256"
        }
      ],
      "stateMutability": "view",
      "type": "function"
    },
    {
      "inputs": [
        {
          "internalType": "uint256",
          "name": "",
          "type": "uint256"
        },
        {
          "internalType": "uint256",
          "name": "",
          "type": "uint256"
        }
      ],
      "name": "membershipTaken",
      "outputs": [
        {
          "internalType": "address",
          "name": "",
          "type": "address"
        }
      ],
      "stateMutability": "view",
      "type": "function"
    },
    {
      "inputs": [
        {
          "internalType": "uint256",
          "name": "_membershipId",
          "type": "uint256"
        },
        {
          "internalType": "address",
          "name": "_user",
          "type": "address"
        },
        {
          "internalType": "string",
          "name": "_expriedDate",
          "type": "string"
        }
      ],
      "name": "mint",
      "outputs": [],
      "stateMutability": "payable",
      "type": "function"
    },
    {
      "inputs": [],
      "name": "name",
      "outputs": [
        {
          "internalType": "string",
          "name": "",
          "type": "string"
        }
      ],
      "stateMutability": "view",
      "type": "function"
    },
    {
      "inputs": [],
      "name": "owner",
      "outputs": [
        {
          "internalType": "address",
          "name": "",
          "type": "address"
        }
      ],
      "stateMutability": "view",
      "type": "function"
    },
    {
      "inputs": [
        {
          "internalType": "uint256",
          "name": "tokenId",
          "type": "uint256"
        }
      ],
      "name": "ownerOf",
      "outputs": [
        {
          "internalType": "address",
          "name": "",
          "type": "address"
        }
      ],
      "stateMutability": "view",
      "type": "function"
    },
    {
      "inputs": [
        {
          "internalType": "address",
          "name": "from",
          "type": "address"
        },
        {
          "internalType": "address",
          "name": "to",
          "type": "address"
        },
        {
          "internalType": "uint256",
          "name": "tokenId",
          "type": "uint256"
        }
      ],
      "name": "safeTransferFrom",
      "outputs": [],
      "stateMutability": "nonpayable",
      "type": "function"
    },
    {
      "inputs": [
        {
          "internalType": "address",
          "name": "from",
          "type": "address"
        },
        {
          "internalType": "address",
          "name": "to",
          "type": "address"
        },
        {
          "internalType": "uint256",
          "name": "tokenId",
          "type": "uint256"
        },
        {
          "internalType": "bytes",
          "name": "data",
          "type": "bytes"
        }
      ],
      "name": "safeTransferFrom",
      "outputs": [],
      "stateMutability": "nonpayable",
      "type": "function"
    },
    {
      "inputs": [
        {
          "internalType": "address",
          "name": "operator",
          "type": "address"
        },
        {
          "internalType": "bool",
          "name": "approved",
          "type": "bool"
        }
      ],
      "name": "setApprovalForAll",
      "outputs": [],
      "stateMutability": "nonpayable",
      "type": "function"
    },
    {
      "inputs": [
        {
          "internalType": "bytes4",
          "name": "interfaceId",
          "type": "bytes4"
        }
      ],
      "name": "supportsInterface",
      "outputs": [
        {
          "internalType": "bool",
          "name": "",
          "type": "bool"
        }
      ],
      "stateMutability": "view",
      "type": "function"
    },
    {
      "inputs": [],
      "name": "symbol",
      "outputs": [
        {
          "internalType": "string",
          "name": "",
          "type": "string"
        }
      ],
      "stateMutability": "view",
      "type": "function"
    },
    {
      "inputs": [
        {
          "internalType": "uint256",
          "name": "tokenId",
          "type": "uint256"
        }
      ],
      "name": "tokenURI",
      "outputs": [
        {
          "internalType": "string",
          "name": "",
          "type": "string"
        }
      ],
      "stateMutability": "view",
      "type": "function"
    },
    {
      "inputs": [],
      "name": "totalMemberships",
      "outputs": [
        {
          "internalType": "uint256",
          "name": "",
          "type": "uint256"
        }
      ],
      "stateMutability": "view",
      "type": "function"
    },
    {
      "inputs": [
        {
          "internalType": "address",
          "name": "from",
          "type": "address"
        },
        {
          "internalType": "address",
          "name": "to",
          "type": "address"
        },
        {
          "internalType": "uint256",
          "name": "tokenId",
          "type": "uint256"
        }
      ],
      "name": "transferFrom",
      "outputs": [],
      "stateMutability": "nonpayable",
      "type": "function"
    },
    {
      "inputs": [],
      "name": "withdraw",
      "outputs": [],
      "stateMutability": "nonpayable",
      "type": "function"
    }
  ],
  "bytecode": "0x60c0604052600b60809081526a4441554c4154204855535360a81b60a0526009906200002c9082620001b3565b503480156200003a57600080fd5b506040516200289b3803806200289b8339810160408190526200005d916200039d565b818160006200006d8382620001b3565b5060016200007c8282620001b3565b5050600680546001600160a01b031916331790555062000417915050565b634e487b7160e01b600052604160045260246000fd5b634e487b7160e01b600052602260045260246000fd5b600281046001821680620000db57607f821691505b602082108103620000f057620000f0620000b0565b50919050565b600062000107620001048381565b90565b92915050565b6200011883620000f6565b81546008840282811b60001990911b908116901990911617825550505050565b6000620001478184846200010d565b505050565b818110156200016b576200016260008262000138565b6001016200014c565b5050565b601f82111562000147576000818152602090206020601f85010481016020851015620001985750805b620001ac6020601f8601048301826200014c565b5050505050565b81516001600160401b03811115620001cf57620001cf6200009a565b620001db8254620000c6565b620001e88282856200016f565b6020601f8311600181146200021f5760008415620002065750858201515b600019600886021c19811660028602178655506200027b565b600085815260208120601f198616915b828110156200025157888501518255602094850194600190920191016200022f565b868310156200026e5784890151600019601f89166008021c191682555b6001600288020188555050505b505050505050565b601f19601f83011681018181106001600160401b0382111715620002ab57620002ab6200009a565b6040525050565b6000620002be60405190565b9050620002cc828262000283565b919050565b60006001600160401b03821115620002ed57620002ed6200009a565b601f19601f83011660200192915050565b60005b838110156200031b57818101518382015260200162000301565b50506000910152565b60006200033b6200033584620002d1565b620002b2565b905082815260208101848484011115620003585762000358600080fd5b62000365848285620002fe565b509392505050565b600082601f830112620003835762000383600080fd5b81516200039584826020860162000324565b949350505050565b60008060408385031215620003b557620003b5600080fd5b82516001600160401b03811115620003d057620003d0600080fd5b620003de858286016200036d565b92505060208301516001600160401b03811115620003ff57620003ff600080fd5b6200040d858286016200036d565b9150509250929050565b61247480620004276000396000f3fe6080604052600436106101965760003560e01c80638da5cb5b116100e1578063bcd57d041161008a578063d121968411610064578063d121968414610487578063e67e402c146104c8578063e985e9c5146104db578063f9efde301461052457600080fd5b8063bcd57d041461041a578063c87b56dd1461043a578063cdc461ad1461045a57600080fd5b80639cb04aef116100bb5780639cb04aef1461039f578063a22cb465146103da578063b88d4fde146103fa57600080fd5b80638da5cb5b1461035457806395d89b41146103745780639bb11c421461038957600080fd5b80633ccfd60b1161014357806354b003bb1161011d57806354b003bb146102f15780636352211e1461031457806370a082311461033457600080fd5b80633ccfd60b1461028f5780633d07be7b146102a457806342842e0e146102d157600080fd5b8063095ea7b311610174578063095ea7b31461022057806323b872dd1461024257806338fbf2c61461026257600080fd5b806301ffc9a71461019b57806306fdde03146101d1578063081812fc146101f3575b600080fd5b3480156101a757600080fd5b506101bb6101b63660046116be565b610539565b6040516101c891906116e9565b60405180910390f35b3480156101dd57600080fd5b506101e661061e565b6040516101c8919061174d565b3480156101ff57600080fd5b5061021361020e36600461176f565b6106b0565b6040516101c891906117aa565b34801561022c57600080fd5b5061024061023b3660046117cc565b6106d7565b005b34801561024e57600080fd5b5061024061025d366004611809565b610783565b34801561026e57600080fd5b5061028261027d36600461176f565b6107b4565b6040516101c891906118c1565b34801561029b57600080fd5b5061024061093c565b3480156102b057600080fd5b506102c46102bf3660046118d2565b6109d7565b6040516101c89190611958565b3480156102dd57600080fd5b506102406102ec366004611809565b610a78565b3480156102fd57600080fd5b5061030760075481565b6040516101c89190611969565b34801561032057600080fd5b5061021361032f36600461176f565b610a93565b34801561034057600080fd5b5061030761034f3660046118d2565b610ac8565b34801561036057600080fd5b50600654610213906001600160a01b031681565b34801561038057600080fd5b506101e6610b0c565b34801561039557600080fd5b5061030760085481565b3480156103ab57600080fd5b506101bb6103ba366004611977565b600c60209081526000928352604080842090915290825290205460ff1681565b3480156103e657600080fd5b506102406103f53660046119bd565b610b1b565b34801561040657600080fd5b50610240610415366004611afc565b610b2a565b34801561042657600080fd5b50610240610435366004611b7b565b610b62565b34801561044657600080fd5b506101e661045536600461176f565b610c12565b34801561046657600080fd5b5061047a61047536600461176f565b610c86565b6040516101c89190611c53565b34801561049357600080fd5b506102136104a2366004611c64565b600d6020908152600092835260408084209091529082529020546001600160a01b031681565b6102406104d6366004611c86565b610ce8565b3480156104e757600080fd5b506101bb6104f6366004611cbb565b6001600160a01b03918216600090815260056020908152604080832093909416825291909152205460ff1690565b34801561053057600080fd5b506101e6610ea9565b60007fffffffff0000000000000000000000000000000000000000000000000000000082167f80ac58cd0000000000000000000000000000000000000000000000000000000014806105cc57507fffffffff0000000000000000000000000000000000000000000000000000000082167f5b5e139f00000000000000000000000000000000000000000000000000000000145b8061061857507f01ffc9a7000000000000000000000000000000000000000000000000000000007fffffffff000000000000000000000000000000000000000000000000000000008316145b92915050565b60606000805461062d90611d0c565b80601f016020809104026020016040519081016040528092919081815260200182805461065990611d0c565b80156106a65780601f1061067b576101008083540402835291602001916106a6565b820191906000526020600020905b81548152906001019060200180831161068957829003601f168201915b5050505050905090565b60006106bb82610f37565b506000908152600460205260409020546001600160a01b031690565b60006106e282610a93565b9050806001600160a01b0316836001600160a01b03160361071e5760405162461bcd60e51b815260040161071590611d95565b60405180910390fd5b336001600160a01b038216148061075857506001600160a01b038116600090815260056020908152604080832033845290915290205460ff165b6107745760405162461bcd60e51b815260040161071590611dff565b61077e8383610f6b565b505050565b61078d3382610ff1565b6107a95760405162461bcd60e51b815260040161071590611e69565b61077e838383611070565b6107df6040518060800160405280600081526020016060815260200160008152602001606081525090565b600b60008381526020019081526020016000206040518060800160405290816000820154815260200160018201805461081790611d0c565b80601f016020809104026020016040519081016040528092919081815260200182805461084390611d0c565b80156108905780601f1061086557610100808354040283529160200191610890565b820191906000526020600020905b81548152906001019060200180831161087357829003601f168201915b50505050508152602001600282015481526020016003820180546108b390611d0c565b80601f01602080910402602001604051908101604052809291908181526020018280546108df90611d0c565b801561092c5780601f106109015761010080835404028352916020019161092c565b820191906000526020600020905b81548152906001019060200180831161090f57829003601f168201915b5050505050815250509050919050565b6006546001600160a01b031633146109665760405162461bcd60e51b815260040161071590611ed3565b6006546040516000916001600160a01b031690479061098490611ee6565b60006040518083038185875af1925050503d80600081146109c1576040519150601f19603f3d011682016040523d82523d6000602084013e6109c6565b606091505b50509050806109d457600080fd5b50565b610a126040518060a00160405280600081526020016000815260200160006001600160a01b0316815260200160008152602001606081525090565b6001600160a01b038083166000908152600a6020908152604091829020825160a08101845281548152600182015492810192909252600281015490931691810191909152600382015460608201526004820180549192916080840191906108b390611d0c565b61077e83838360405180602001604052806000815250610b2a565b6000818152600260205260408120546001600160a01b0316806106185760405162461bcd60e51b815260040161071590611f25565b60006001600160a01b038216610af05760405162461bcd60e51b815260040161071590611f8f565b506001600160a01b031660009081526003602052604090205490565b60606001805461062d90611d0c565b610b263383836111b0565b5050565b610b343383610ff1565b610b505760405162461bcd60e51b815260040161071590611e69565b610b5c84848484611270565b50505050565b6006546001600160a01b03163314610b8c5760405162461bcd60e51b815260040161071590611ed3565b60078054906000610b9c83611fce565b9091555050604080516080810182526007548082526020808301878152838501879052606084018690526000928352600b9091529290208151815591519091906001820190610beb9082612085565b506040820151600282015560608201516003820190610c0a9082612085565b505050505050565b6060610c1d82610f37565b6000610c3460408051602081019091526000815290565b90506000815111610c545760405180602001604052806000815250610c7f565b80610c5e846112a3565b604051602001610c6f92919061216a565b6040516020818303038152906040525b9392505050565b6000818152600e6020908152604091829020805483518184028101840190945280845260609392830182828015610cdc57602002820191906000526020600020905b815481526020019060010190808311610cc8575b50505050509050919050565b82600003610cf557600080fd5b600754831115610d0457600080fd5b6000838152600b6020526040902060020154341015610d355760405162461bcd60e51b8152600401610715906121b6565b60088054906000610d4583611fce565b90915550506040805160a081018252600854815260208082018681526001600160a01b0386811684860181815260008a8152600b865287812060029081015460608901908152608089018b8152948352600a90975297902086518155935160018501555195830180547fffffffffffffffffffffffff000000000000000000000000000000000000000016969092169590951790559051600382015591519091906004820190610df59082612085565b5050506000838152600c602090815260408083203380855290835281842080547fffffffffffffffffffffffffffffffffffffffffffffffffffffffffffffff00166001908117909155878552600d845282852060088054875290855283862080547fffffffffffffffffffffffff00000000000000000000000000000000000000001684179055888652600e855292852083548154928301825590865293909420909301919091555461077e9190611344565b60098054610eb690611d0c565b80601f0160208091040260200160405190810160405280929190818152602001828054610ee290611d0c565b8015610f2f5780601f10610f0457610100808354040283529160200191610f2f565b820191906000526020600020905b815481529060010190602001808311610f1257829003601f168201915b505050505081565b6000818152600260205260409020546001600160a01b03166109d45760405162461bcd60e51b815260040161071590611f25565b600081815260046020526040902080547fffffffffffffffffffffffff0000000000000000000000000000000000000000166001600160a01b0384169081179091558190610fb882610a93565b6001600160a01b03167f8c5be1e5ebec7d5bd14f71427d1e84f3dd0314c0f7b2291e5b200ac8c7c3b92560405160405180910390a45050565b600080610ffd83610a93565b9050806001600160a01b0316846001600160a01b0316148061104457506001600160a01b0380821660009081526005602090815260408083209388168352929052205460ff165b806110685750836001600160a01b031661105d846106b0565b6001600160a01b0316145b949350505050565b826001600160a01b031661108382610a93565b6001600160a01b0316146110a95760405162461bcd60e51b815260040161071590612220565b6001600160a01b0382166110cf5760405162461bcd60e51b81526004016107159061228a565b826001600160a01b03166110e282610a93565b6001600160a01b0316146111085760405162461bcd60e51b815260040161071590612220565b600081815260046020908152604080832080547fffffffffffffffffffffffff00000000000000000000000000000000000000009081169091556001600160a01b0387811680865260038552838620805460001901905590871680865283862080546001019055868652600290945282852080549092168417909155905184937fddf252ad1be2c89b69c2b068fc378daa952ba7f163c4a11628f55a4df523b3ef91a4505050565b816001600160a01b0316836001600160a01b0316036111e15760405162461bcd60e51b8152600401610715906122ce565b6001600160a01b038381166000818152600560209081526040808320948716808452949091529081902080547fffffffffffffffffffffffffffffffffffffffffffffffffffffffffffffff0016851515179055517f17307eab39ab6107e8899845ad3d59bd9653f200f220920489ca2b5937696c31906112639085906116e9565b60405180910390a3505050565b61127b848484611070565b61128784848484611457565b610b5c5760405162461bcd60e51b815260040161071590612338565b606060006112b0836115a2565b600101905060008167ffffffffffffffff8111156112d0576112d06119f0565b6040519080825280601f01601f1916602001820160405280156112fa576020820181803683370190505b5090508181016020015b600019017f3031323334353637383961626364656600000000000000000000000000000000600a86061a8153600a8504945084611304575b509392505050565b6001600160a01b03821661136a5760405162461bcd60e51b81526004016107159061237a565b6000818152600260205260409020546001600160a01b03161561139f5760405162461bcd60e51b8152600401610715906123be565b6000818152600260205260409020546001600160a01b0316156113d45760405162461bcd60e51b8152600401610715906123be565b6001600160a01b038216600081815260036020908152604080832080546001019055848352600290915280822080547fffffffffffffffffffffffff0000000000000000000000000000000000000000168417905551839291907fddf252ad1be2c89b69c2b068fc378daa952ba7f163c4a11628f55a4df523b3ef908290a45050565b60006001600160a01b0384163b15611597576040517f150b7a020000000000000000000000000000000000000000000000000000000081526001600160a01b0385169063150b7a02906114b49033908990889088906004016123ce565b6020604051808303816000875af19250505080156114ef575060408051601f3d908101601f191682019092526114ec9181019061241d565b60015b61154c573d80801561151d576040519150601f19603f3d011682016040523d82523d6000602084013e611522565b606091505b5080516000036115445760405162461bcd60e51b815260040161071590612338565b805181602001fd5b7fffffffff00000000000000000000000000000000000000000000000000000000167f150b7a0200000000000000000000000000000000000000000000000000000000149050611068565b506001949350505050565b6000807a184f03e93ff9f4daa797ed6e38ed64bf6a1f01000000000000000083106115eb577a184f03e93ff9f4daa797ed6e38ed64bf6a1f010000000000000000830492506040015b6d04ee2d6d415b85acef81000000008310611617576d04ee2d6d415b85acef8100000000830492506020015b662386f26fc10000831061163557662386f26fc10000830492506010015b6305f5e100831061164d576305f5e100830492506008015b612710831061166157612710830492506004015b60648310611673576064830492506002015b600a83106106185760010192915050565b7fffffffff0000000000000000000000000000000000000000000000000000000081165b81146109d457600080fd5b803561061881611684565b6000602082840312156116d3576116d3600080fd5b600061106884846116b3565b8015155b82525050565b6020810161061882846116df565b60005b838110156117125781810151838201526020016116fa565b50506000910152565b6000611725825190565b80845260208401935061173c8185602086016116f7565b601f01601f19169290920192915050565b60208082528101610c7f818461171b565b806116a8565b80356106188161175e565b60006020828403121561178457611784600080fd5b60006110688484611764565b60006001600160a01b038216610618565b6116e381611790565b6020810161061882846117a1565b6116a881611790565b8035610618816117b8565b600080604083850312156117e2576117e2600080fd5b60006117ee85856117c1565b92505060206117ff85828601611764565b9150509250929050565b60008060006060848603121561182157611821600080fd5b600061182d86866117c1565b935050602061183e868287016117c1565b925050604061184f86828701611764565b9150509250925092565b806116e3565b805160009060808401906118738582611859565b506020830151848203602086015261188b828261171b565b91505060408301516118a06040860182611859565b50606083015184820360608601526118b8828261171b565b95945050505050565b60208082528101610c7f818461185f565b6000602082840312156118e7576118e7600080fd5b600061106884846117c1565b805160009060a08401906119078582611859565b50602083015161191a6020860182611859565b50604083015161192d60408601826117a1565b5060608301516119406060860182611859565b50608083015184820360808601526118b8828261171b565b60208082528101610c7f81846118f3565b602081016106188284611859565b6000806040838503121561198d5761198d600080fd5b60006119998585611764565b92505060206117ff858286016117c1565b8015156116a8565b8035610618816119aa565b600080604083850312156119d3576119d3600080fd5b60006119df85856117c1565b92505060206117ff858286016119b2565b7f4e487b7100000000000000000000000000000000000000000000000000000000600052604160045260246000fd5b601f19601f830116810181811067ffffffffffffffff82111715611a4557611a456119f0565b6040525050565b6000611a5760405190565b9050611a638282611a1f565b919050565b600067ffffffffffffffff821115611a8257611a826119f0565b601f19601f83011660200192915050565b82818337506000910152565b6000611ab2611aad84611a68565b611a4c565b905082815260208101848484011115611acd57611acd600080fd5b61133c848285611a93565b600082601f830112611aec57611aec600080fd5b8135611068848260208601611a9f565b60008060008060808587031215611b1557611b15600080fd5b6000611b2187876117c1565b9450506020611b32878288016117c1565b9350506040611b4387828801611764565b925050606085013567ffffffffffffffff811115611b6357611b63600080fd5b611b6f87828801611ad8565b91505092959194509250565b600080600060608486031215611b9357611b93600080fd5b833567ffffffffffffffff811115611bad57611bad600080fd5b611bb986828701611ad8565b9350506020611bca86828701611764565b925050604084013567ffffffffffffffff811115611bea57611bea600080fd5b61184f86828701611ad8565b6000611c028383611859565b505060200190565b6000611c14825190565b80845260209384019383018060005b83811015611c48578151611c378882611bf6565b975060208301925050600101611c23565b509495945050505050565b60208082528101610c7f8184611c0a565b60008060408385031215611c7a57611c7a600080fd5b60006117ee8585611764565b600080600060608486031215611c9e57611c9e600080fd5b6000611caa8686611764565b9350506020611bca868287016117c1565b60008060408385031215611cd157611cd1600080fd5b600061199985856117c1565b7f4e487b7100000000000000000000000000000000000000000000000000000000600052602260045260246000fd5b600281046001821680611d2057607f821691505b602082108103611d3257611d32611cdd565b50919050565b602181526000602082017f4552433732313a20617070726f76616c20746f2063757272656e74206f776e6581527f7200000000000000000000000000000000000000000000000000000000000000602082015291505b5060400190565b6020808252810161061881611d38565b603d81526000602082017f4552433732313a20617070726f76652063616c6c6572206973206e6f7420746f81527f6b656e206f776e6572206f7220617070726f76656420666f7220616c6c00000060208201529150611d8e565b6020808252810161061881611da5565b602d81526000602082017f4552433732313a2063616c6c6572206973206e6f7420746f6b656e206f776e6581527f72206f7220617070726f7665640000000000000000000000000000000000000060208201529150611d8e565b6020808252810161061881611e0f565b602181526000602082017f4f6e6c79206f776e65722063616e2063616c6c20746869732066756e6374696f81527f6e0000000000000000000000000000000000000000000000000000000000000060208201529150611d8e565b6020808252810161061881611e79565b90565b600081610618565b601881526000602082017f4552433732313a20696e76616c696420746f6b656e2049440000000000000000815291505b5060200190565b6020808252810161061881611eee565b602981526000602082017f4552433732313a2061646472657373207a65726f206973206e6f74206120766181527f6c6964206f776e6572000000000000000000000000000000000000000000000060208201529150611d8e565b6020808252810161061881611f35565b7f4e487b7100000000000000000000000000000000000000000000000000000000600052601160045260246000fd5b60006000198203611fe157611fe1611f9f565b5060010190565b6000610618611ee38381565b611ffd83611fe8565b81546008840282811b60001990911b908116901990911617825550505050565b600061077e818484611ff4565b81811015610b265761203d60008261201d565b60010161202a565b601f82111561077e576000818152602090206020601f8501048101602085101561206c5750805b61207e6020601f86010483018261202a565b5050505050565b815167ffffffffffffffff81111561209f5761209f6119f0565b6120a98254611d0c565b6120b4828285612045565b6020601f8311600181146120e857600084156120d05750858201515b600019600886021c1981166002860217865550610c0a565b600085815260208120601f198616915b8281101561211857888501518255602094850194600190920191016120f8565b868310156121345784890151600019601f89166008021c191682555b600160028802018855505050505050505050565b6000612152825190565b6121608185602086016116f7565b9290920192915050565b60006121768285612148565b91506110688284612148565b601481526000602082017f496e73696666696563656e742062616c616e636500000000000000000000000081529150611f1e565b6020808252810161061881612182565b602581526000602082017f4552433732313a207472616e736665722066726f6d20696e636f72726563742081527f6f776e657200000000000000000000000000000000000000000000000000000060208201529150611d8e565b60208082528101610618816121c6565b602481526000602082017f4552433732313a207472616e7366657220746f20746865207a65726f2061646481527f726573730000000000000000000000000000000000000000000000000000000060208201529150611d8e565b6020808252810161061881612230565b601981526000602082017f4552433732313a20617070726f766520746f2063616c6c65720000000000000081529150611f1e565b602080825281016106188161229a565b603281526000602082017f4552433732313a207472616e7366657220746f206e6f6e20455243373231526581527f63656976657220696d706c656d656e746572000000000000000000000000000060208201529150611d8e565b60208082528101610618816122de565b60208082527f4552433732313a206d696e7420746f20746865207a65726f206164647265737391019081526000611f1e565b6020808252810161061881612348565b601c81526000602082017f4552433732313a20746f6b656e20616c7265616479206d696e7465640000000081529150611f1e565b602080825281016106188161238a565b608081016123dc82876117a1565b6123e960208301866117a1565b6123f66040830185611859565b8181036060830152612408818461171b565b9695505050505050565b805161061881611684565b60006020828403121561243257612432600080fd5b6000611068848461241256fea2646970667358221220c351be2cc87763175d58c120c64577000edb85974843917e5c6488fa5b6f872b64736f6c63430008110033",
  "linkReferences": {},
  "deployedLinkReferences": {}
}